:1000000048C1000077C1000075C1000073C1000045
:1000100071C100006FC100006DC100006BC1000024
:100020000C94101667C100000C94E52B0C941D2D48
:1000300061C100000C94862A5DC100005BC1000014
:1000400059C1000057C1000055C1000053C1000054
:100050000C94EF204FC100004DC100000C94F2221F
:1000600049C1000052C4000034C5000043C1000073
:1000700041C100003FC100003DC100003BC1000084
:1000800039C1000037C1000035C1000033C1000094
:100090006FC400005DC500002DC100002BC1000031
:1000A00029C1000027C1000025C1000023C10000B4
:1000B00021C100000C94E52A1DC100001BC10000F5
:1000C00019C1000017C1000015C1000084C4000060
:1000D0007EC500000FC10000B1C40000B7C500001C
:1000E00009C10000036EDB363D9A9999993DABAA90
:1000F000AA2A3E000000803F084AD73B3BCE016E53
:1001000084BCBFFDC12F3D6C74319ABD56833DDA6E
:100110003D00C77F11BED9E4BB4C3E916BAAAABE7D
:10012000000000803F072C7AA5BA6CC590DA3B939B
:1001300065FC8BBC53F810FD3C5692834DBD879DEA
:100140003AB63DCBC9BF5BBE73DA0FC93F000000B2
:10015000000000000000000000000000000000009F
:100160000000000000000000000F1011000000005F
:100170000007000D000C000B000000000000020151
:100180000809030400000000000000000A0000004D
:100190000000000000000000060000000001020452
:1001A0000810204080010204081020408001020451
:1001B0000801020408010204081020408080800128
:1001C000400220041008081004200240012080088A
:1001D00010204080010204081020402040800102CD
:1001E00004081020408004100104080201010101EC
:1001F00001010101030303030303030306060606CB
:100200000B0B0B0B0C0C0C0C0C0C0C0C0B080A083D
:100210000A080A080A080A080A080A08070205055F
:100220000202040404040404040405050507070786
:1002300007070B0B0A05020202020200002000233E
:1002400000260029002C002F0032000001000003CE
:10025000010601090100002200250028002B002EC4
:10026000003100340002010000050108010B01000B
:10027000002100240027002A002D00300033000157
:10028000010000040107010A01028D033D07BE1BA6
:10029000D00311241FBECFEFD1E2DEBFCDBF00E0FF
:1002A0000CBF13E0A0E0B2E0E4EFF8E600E00BBF23
:1002B00002C007900D92AC3EB107D9F728E0ACEE32
:1002C000B3E001C01D92A130B207E1F711E0C8E42C
:1002D000D1E000E006C021970109802FFE010E94B5
:1002E0002731C534D10780E00807A9F70E94E4222E
:1002F0000C94693485CECF93DF93EC0164E670E013
:1003000080E090E00E9461234E855F8568E185E78B
:1003100097E00E94FF214889598969E185E797E0C4
:100320000E94FF2180E00E94C724019761F481E0D0
:100330000E94C724019739F464E670E080E090E001
:100340000E946123EFCF64E670E080E090E00E94BD
:1003500061234889598968E185E797E00E94FF2178
:100360004E855F8569E185E797E00E94FF21C5EF33
:10037000D1E061E070E080E090E00E94612321978D
:10038000C1F764E670E080E090E00E9461234CEDEC
:1003900055E068E185E797E00E94FF214CED55E0CC
:1003A00069E185E797E0DF91CF910C94FF218CED17
:1003B00096E00E9489194CE454E068E185E797E0F3
:1003C0000E94FF214CE454E069E185E797E00E9438
:1003D000FF218CED96E00E94571920E030E044EBBD
:1003E00052E40E94692E87FF13C08CED96E00E94B4
:1003F0005719AB01BC0122E030E084E694E00E9492
:10040000320A64E670E080E090E00E946123E1CF70
:100410004CED55E068E185E797E00E94FF214CED47
:1004200055E069E185E797E00C94FF218CED96E0BB
:100430000E94891948E958E068E185E797E00E9441
:10044000FF2148E958E069E185E797E00E94FF2134
:100450008CED96E00E94571920E030E047E853E425
:100460000E940930181694F48CED96E00E945719FA
:10047000AB01BC0122E030E084E694E0F3D764E60F
:1004800070E080E090E00E946123E2CF8CED96E086
:100490000E94571920E030E040E251E40E94692EAA
:1004A00087FDE2CF4CED55E068E185E797E00E94DB
:1004B000FF214CED55E069E185E797E00C94FF21C1
:1004C000CF93DF93EC014E855F8568E185E797E088
:1004D0000E94FF214889598969E185E797E00E94D8
:1004E000FF2160E082E997E00E94CD2240978CF0E6
:1004F00080E00E94C724019761F481E00E94C72434
:10050000019739F462E370E080E090E00E9461239B
:10051000E8CF64E670E080E090E00E9461234889C3
:10052000598968E185E797E00E94FF214E855F8544
:1005300069E185E797E00E94FF21C5EFD1E061E026
:1005400070E080E090E00E9461232197C1F764E6AB
:1005500070E080E090E00E9461238CED96E00E94C4
:10056000891948EE53E068E185E797E00E94FF2192
:1005700048EE53E069E185E797E00E94FF218CEDAA
:1005800096E00E94571920E030E044EB52E40E94CC
:10059000692E87FF12C08CED96E00E945719AB01BF
:1005A000BC0122E030E084E694E05CD764E670E0D1
:1005B00080E090E00E946123E2CF4CED55E068E1DD
:1005C00085E797E00E94FF214CED55E069E185E762
:1005D00097E0DF91CF910C94FF210E94860B80E37E
:1005E00097E00E94E81A8CED96E00E9433198CED9A
:1005F00096E00E94891960E082E997E00E943B2220
:1006000068E185E797E00E94A72169E185E797E027
:100610000E94A72162E080E00E945E2462E081E007
:100620000C945E2440E060E080E397E00E94811B30
:100630006CEE73E080E397E029D540E061E080E371
:1006400097E00E94811B63EF73E080E397E01ED583
:1006500081E00E942522813009F05EC068EC70E0E4
:1006600080E090E00E9461238CEE93E044DE68EC31
:1006700070E080E090E00E9461238CEE93E097DED2
:1006800068EC70E080E090E00E9461238CEE93E0E3
:10069000CDDE68EC70E080E090E00E9461238CED9C
:1006A00096E00E9489194CE454E068E185E797E000
:1006B0000E94FF214CE454E069E185E797E00E9445
:1006C000FF218CED96E00E94571920E030E044E3D2
:1006D00053E40E94692E87FF07C064E670E080E063
:1006E00090E00E946123EDCF4CED55E068E185E795
:1006F00097E00E94FF214CED55E069E185E797E026
:100700000E94FF2168EC70E080E090E00E9461238D
:100710008CEE93E0D5DEFCCF0895CF93DF93CDB779
:10072000DEB72E970FB6F894DEBF0FBECDBF67E0E1
:1007300072E0CE01089612D76FE072E0CE0101960A
:100740000DD76FEA73E08CEE93E008D76FEA73E0A1
:1007500083EF93E003D7BE016F5F7F4F8CEE93E092
:1007600012D7BE01685F7F4F83EF93E00CD7ECEEAA
:10077000F3E08FE897E09787868785E194E0918B97
:10078000808BCE0101967ED6CE0108967BD62E9622
:100790000FB6F894DEBF0FBECDBFDF91CF910895A5
:1007A00083EF93E06FD68CEE93E06CC6FC0124855A
:1007B0003585F901E05CFF4F808191812E5B3F4FD1
:1007C000F90120813181821B930B8F739927089542
:1007D000FC0184859585FC01E05CFF4F40815181DF
:1007E0003296208131814217530741F020813181B7
:1007F000820F931FFC01808190E008958FEF9FEF9F
:100800000895DC011C968D919C91FC01E05CFF4FEA
:10081000408151813296208131814217530781F006
:1008200020813181820F931FDC018C9120813181E5
:100830002F5F3F4F2F7333273183208390E008953C
:100840008FEF9FEF0895FC0191A1992329F0A489CE
:10085000B5898C9186FFF9CF11A20895CF93DF93CC
:10086000FC0126853785D901A05CBF4F8D919C91F5
:10087000119701968F739927E901CE5BDF4F48816D
:10088000598148175907D9F34D915C91240F351FB1
:10089000D9016C93A685B785A05CBF4F11969C9338
:1008A0008E93A689B7898C91978D21E030E001C0A5
:1008B000220F9A95EAF7822B8C9381E081A304881A
:1008C000F589E02D80818064808381E090E0DF9174
:1008D000CF910895FB01E05CFF4F20813181DB0166
:1008E000AE5BBF4F4D915C912F5F3F4F2F7333270E
:1008F0004217530741F040815181640F751FDB019E
:100900008C9331832083089508951F920F920FB620
:100910000F9211240BB60F922F933F934F935F9337
:100920006F937F938F939F93AF93BF93EF93FF93B7
:100930008091C00082FD18C08091C60062E676E01A
:10094000C9DFFF91EF91BF91AF919F918F917F91FF
:100950006F915F914F913F912F910F900BBE0F9030
:100960000FBE0F901F9018958091C600EACF089592
:100970001F920F920FB60F9211240BB60F922F9366
:100980003F934F935F936F937F938F939F93AF9317
:10099000BF93EF93FF938091C80082FD18C08091B0
:1009A000CE006AED75E096DFFF91EF91BF91AF91B8
:1009B0009F918F917F916F915F914F913F912F9177
:1009C0000F900BBE0F900FBE0F901F901895809147
:1009D000CE00EACF08951F920F920FB60F92112406
:1009E0000BB60F922F933F934F935F936F937F9329
:1009F0008F939F93AF93BF93EF93FF938091D0001A
:100A000082FD18C08091D60062E575E063DFFF913A
:100A1000EF91BF91AF919F918F917F916F915F9176
:100A20004F913F912F910F900BBE0F900FBE0F90E3
:100A30001F9018958091D600EACF08951F920F92CB
:100A40000FB60F9211240BB60F922F933F934F9333
:100A50005F936F937F938F939F93AF93BF93EF9326
:100A6000FF938091300182FD18C0809136016AECBD
:100A700074E030DFFF91EF91BF91AF919F918F9123
:100A80007F916F915F914F913F912F910F900BBE8E
:100A90000F900FBE0F901F90189580913601EACFEE
:100AA00084E694E083DE892B09F02EDF82E494E073
:100AB0007DDE892B09F05BDF80E294E077DE892B15
:100AC00009F088DF8EEF93E071DE892B09F0B5CF56
:100AD00008951F920F920FB60F9211240BB60F922A
:100AE0002F933F938F939F93EF93FF9320915E06F5
:100AF00030915F0680916006909161062817390752
:100B000091F48091C1008F7D8093C100FF91EF919E
:100B10009F918F913F912F910F900BBE0F900FBE21
:100B20000F901F901895E0916006F0916106E25ECB
:100B3000F94F2081809160069091610601968F7334
:100B4000992790936106809360062093C600DECFBC
:100B50001F920F920FB60F9211240BB60F922F9384
:100B60003F938F939F93EF93FF932091D6053091FE
:100B7000D7058091D8059091D9052817390791F4A8
:100B80008091C9008F7D8093C900FF91EF919F9163
:100B90008F913F912F910F900BBE0F900FBE0F9032
:100BA0001F901895E091D805F091D905EA56FA4FB3
:100BB00020818091D8059091D90501968F7399274E
:100BC0009093D9058093D8052093CE00DECF1F9255
:100BD0000F920FB60F9211240BB60F922F933F93E3
:100BE0008F939F93EF93FF9320914E0530914F0584
:100BF00080915005909151052817390791F4809103
:100C0000D1008F7D8093D100FF91EF919F918F91C3
:100C10003F912F910F900BBE0F900FBE0F901F9022
:100C20001895E0915005F0915105E25FFA4F20814F
:100C3000809150059091510501968F73992790935B
:100C40005105809350052093D600DECF1F920F925E
:100C50000FB60F9211240BB60F922F933F938F93E1
:100C60009F93EF93FF932091C6043091C704809126
:100C7000C8049091C9042817390791F48091310173
:100C80008F7D80933101FF91EF919F918F913F91E3
:100C90002F910F900BBE0F900FBE0F901F901895C5
:100CA000E091C804F091C904EA57FB4F208180917C
:100CB000C8049091C90401968F7399279093C90431
:100CC0008093C80420933601DECFCF92DF92EF925B
:100CD000FF92CF93DF93EC016A017B01C11481EE97
:100CE000D806E104F10409F04FC0EC89FD891082B7
:100CF00060E874E88EE190E0A70196010E94E93077
:100D00002150310941095109569547953795279545
:100D1000E889F9893083EA89FB89208319A2EE8961
:100D2000FF8920813C8D81E090E0AC0101C0440F3F
:100D30003A95EAF7242B2083EE89FF8920813D8DA7
:100D4000AC0101C0440F3A95EAF7242B2083EE89C9
:100D5000FF8920813E8DAC0101C0440F3A95EAF72E
:100D6000242B2083EE89FF8920813F8D01C0880FCD
:100D70003A95EAF7809582238083DF91CF91FF90A7
:100D8000EF90DF90CF900895EC89FD8928A181E054
:100D900090E001C0880F2A95EAF7808360E079E04F
:100DA0008DE390E0A70196010E94E93021503109BE
:100DB000410951095695479537952795211580E1A9
:100DC000380708F092CFA4CFCF93DF93FC0186853C
:100DD0009785DC01A05CBF4F8E5B9F4F4D915C916E
:100DE0001197EC012881398142175307B9F7A68979
:100DF000B7894C91248D81E090E0BC0102C0660F60
:100E0000771F2A95E2F79B01209524232C93A6892E
:100E1000B7894C91258DEC0102C0CC0FDD1F2A95BE
:100E2000E2F79E01209524232C93A689B7894C9143
:100E3000268DBC0102C0660F771F2A95E2F79B0141
:100E4000209524232C93A689B7892C91378D01C036
:100E5000880F3A95EAF7809582238C93848595854F
:100E6000FC01EE5BFF4F20813181805C9F4FEC01E4
:100E700039832883DF91CF910895CF92DF92EF924B
:100E8000FF92E4E6F4E01382128288EEC82E83E03B
:100E9000D82EE12CF12CC482D582E682F7826CE157
:100EA00072E07183608382E696E0958784878EE1A5
:100EB00096E09787868785EC90E0918B808B84EC19
:100EC00090E0938B828B80EC90E0958B848B81EC0F
:100ED00090E0978B868B82EC90E0918F808F86ECF0
:100EE00090E0938F828F44E0448F33E0358F27E08A
:100EF000268F95E0978F81E080A3E2E4F4E01382EF
:100F00001282C482D582E682F78271836083AAED61
:100F1000B5E0B587A487A6E9B5E0B787A687ADECAD
:100F2000B0E0B18BA08BACECB0E0B38BA28BA8ECA3
:100F3000B0E0B58BA48BA9ECB0E0B78BA68BAAEC84
:100F4000B0E0B18FA08FAEECB0E0B38FA28F448F32
:100F5000358F268F978F80A3E0E2F4E01382128210
:100F6000C482D582E682F78271836083A2E5B5E010
:100F7000B587A487AEE0B5E0B787A687A5EDB0E05A
:100F8000B18BA08BA4EDB0E0B38BA28BA0EDB0E051
:100F9000B58BA48BA1EDB0E0B78BA68BA2EDB0E032
:100FA000B18FA08FA6EDB0E0B38FA28F448F358FA5
:100FB000268F978F80A3EEEFF3E013821282C48214
:100FC000D582E682F782718360836AEC74E075876C
:100FD000648766E874E07787668765E371E0718B04
:100FE000608B64E371E0738B628B60E371E0758BFF
:100FF000648B61E371E0778B668B62E371E0718FE4
:10100000608F66E371E0738F628F448F358F268F18
:10101000978F80A3FF90EF90DF90CF900895CF92AD
:10102000DF92EF92FF920F931F93CF93DF936C01A8
:10103000EB017B01E40EF51E10E000E0CE15DF05AC
:1010400061F06991D601ED91FC910190F081E02D64
:10105000C6011995080F191FF1CFC801DF91CF9173
:101060001F910F91FF90EF90DF90CF900895FB01BB
:1010700001900020E9F73197AF01461B570BDC01C7
:10108000ED91FC910280F381E02D1994AF92BF9213
:10109000CF92DF92EF92FF920F931F93CF93DF9344
:1010A0007C016B01D0E0C0E010E000E0D6011496B6
:1010B0008D919C91C817D90780F4D701ED91FC91CF
:1010C000A080B180BE01C60173D2682FC701F501AF
:1010D0001995080F191F2196E9CFC801DF91CF910B
:1010E0001F910F91FF90EF90DF90CF90BF90AF9046
:1010F00008956115710509F0BACF90E080E0089578
:10110000DC01ED91FC910190F081E02D19940F9399
:101110001F93CF93DF93EC016DE0F2DF8C016AE067
:10112000CE01EEDF800F911FDF91CF911F910F91C4
:1011300008950F931F93CF93DF938C01D0E0C0E00D
:101140006115710511F093DFEC01C801E0DF8C0F30
:101150009D1FDF91CF911F910F9108958F929F92C4
:10116000AF92BF92CF92DF92EF92FF920F931F93B5
:10117000CF93DF93CDB7DEB7A1970FB6F894DEBF5C
:101180000FBECDBF6C01142FE52FCB01022F19A28A
:10119000223008F40AE07E0121E2E20EF11C802EEA
:1011A000912CB12CA12C612F7E2FA50194010E94BE
:1011B000E930029F101911241A3034F5105DF7013F
:1011C00012937F01122FE32FCA01232B242B252BEF
:1011D00051F790E080E0E114F10419F0B701C60185
:1011E00046DFA1960FB6F894DEBF0FBECDBFDF91EC
:1011F000CF911F910F91FF90EF90DF90CF90BF9014
:10120000AF909F908F900895195CD9CFCF92DF92C5
:10121000EF92FF920F931F93CF93DF932115310528
:1012200081F4DC01ED91FC910190F081E02D642FBF
:10123000DF91CF911F910F91FF90EF90DF90CF90B2
:1012400019942A303105F1F42AE077FF1BC06A01B6
:101250007B01EC016DE254DF8C0144275527BA0174
:101260004C195D096E097F092AE0CE0177DF800FF6
:10127000911FDF91CF911F910F91FF90EF90DF9021
:10128000CF900895DF91CF911F910F91FF90EF9034
:10129000DF90CF9063CF9A01AB01770F660B770B8E
:1012A000B5CF2F923F924F925F926F927F928F9223
:1012B0009F92AF92BF92CF92DF92EF92FF921F93D5
:1012C000CF93DF93EC016A017B01722EAB01960193
:1012D000CB01B6010E94BC3068E272E0811126C0E9
:1012E00046015701E894B7F82FEF3FEF4FE75FE76C
:1012F000C501B4010E94BC3081110CC02FEF3FEF3B
:101300004FE75FE7C501B4010E94692E6CE272E00D
:10131000181664F02FEF3FEF4FE75FE4C701B60107
:101320000E9409301816ACF460E372E0CE01DF9140
:10133000CF911F91FF90EF90DF90CF90BF90AF9033
:101340009F908F907F906F905F904F903F902F90E5
:101350008ECE2FEF3FEF4FE75FECC701B6010E9443
:10136000692E87FDE1CF20E030E0A901C701B60179
:101370000E94692E312C212C87FF08C06DE2CE011E
:10138000BFDE1C01F7FAF094F7F8F09410E060E08B
:1013900070E080E09FE3711641F020E030E040E231
:1013A00051E40E946D2E1F5FF6CFA70196010E94A7
:1013B0008C2D2B013C010E94DA2E4B015C012AE0AE
:1013C000BC01A401CE01CADE7C01E20CF31C112396
:1013D000B1F1C501B4010E94062F9B01AC01C3010C
:1013E000B2010E948B2D4B015C0165E872E0CE01D9
:1013F0003EDEE80EF91E115010F120E030E040E230
:1014000051E4C501B4010E9414302B013C010E943B
:10141000D52E4B014AE050E0CE013DDFE80EF91E2B
:10142000B401990C880B990B0E94082F9B01AC0109
:10143000C301B2010E948B2D4B015C01DCCFC701BF
:10144000DF91CF911F91FF90EF90DF90CF90BF90F1
:10145000AF909F908F907F906F905F904F903F9054
:101460002F9008950F931F93CF93DF93EC0119DF13
:101470008C01CE014CDE800F911FDF91CF911F9127
:101480000F910895FC01808191810C948B25CF935D
:10149000DF93EC0188819981009711F00E948B25E0
:1014A000198218821D821C821B821A82DF91CF91C1
:1014B00008950F931F93CF93DF93EC018B016F5F20
:1014C0007F4F888199810E941426009751F099835B
:1014D00088831B830A8381E0DF91CF911F910F9155
:1014E000089580E0F9CFCF93DF93EC018881998153
:1014F000892B49F08A819B818617970720F081E02C
:10150000DF91CF910895CE01D4DF8823C9F38C8178
:101510009D81892BA1F7E881F9811082F0CFEF92AC
:10152000FF920F931F93CF93DF93EC017B018A010E
:10153000BA01D9DF81110AC0CE01A9DFCE01DF9146
:10154000CF911F910F91FF90EF9008951D830C8311
:10155000B701888199810E947331F0CFFC0111821B
:10156000108213821282158214821682611571050F
:1015700049F0FB0101900020E9F73197AF01461BCC
:10158000570BCDCF0895CF93DF93EC01FB01861766
:10159000970741F0608171816115710539F04481CF
:1015A0005581BDDFCE01DF91CF91089570DFFACF75
:1015B000FC01248135816217730748F48081918191
:1015C000009729F0860F971FFC018081089580E025
:1015D0000895CF93DF9381E00E9425228823D9F3D9
:1015E000D0E0C0E081E00E942522811103C0C43117
:1015F000D1056CF48FE99FE00197F1F700C000007E
:1016000081E00E9425228111EBCF2196EBCFDF9163
:10161000CF910895AF92BF92CF92DF92EF92FF9257
:101620000F931F93CF93DF931F92CDB7DEB7E62EB4
:10163000F12C9701280F311D213831050CF046C0DF
:10164000C52E042FD82EF8940E94601A182F80EA15
:101650000E94751A180F8D2D0E94751A180F0E947E
:10166000601A180F81EA0E94751A180FA02EBC2C60
:10167000D12CC12CCE14DF04A1F0CE0101960E9422
:10168000141A180F8981F50181935F01FFEFCF1ABA
:10169000DF0AEC14FD04B1F40E94361A180F0E9400
:1016A000D819789481E0111101C080E00F90DF918A
:1016B000CF911F910F91FF90EF90DF90CF90BF904F
:1016C000AF9008950E944B1A180FD4CF82E0EECF4E
:1016D000809107018F7E80930701809108018F7EA2
:1016E0008093080188E080937B0084E480937C00F1
:1016F00080917A00806480937A0080917A0086FDE0
:10170000FCCF809178009091790008957F928F921C
:101710009F92AF92BF92CF92DF92EF92FF920F9380
:101720001F93CF93DF93CDB7DEB7A1970FB6F89491
:10173000DEBF0FBECDBFAE014B5E5F4F67E089E7F6
:1017400069DFFE0175966E012CE1C20ED11C80E0AE
:101750009191292F2827CE16DF0609F0CDC210E07F
:1017600000E0981709F471C18D89883C09F4C6C25C
:1017700010E000E08E89883C19F40E943222026059
:1017800088EA96E0A4D321E030E09F89983C11F0EC
:1017900030E020E090E028233923232B21F088EA51
:1017A00096E017D308608CED96E00E94421921E084
:1017B00030E0988D983C11F030E020E090E0282354
:1017C0003923232B29F08CED96E00E942419006127
:1017D00085E397E00E94671E21E030E0998D983CF8
:1017E00011F030E020E090E028233923232B29F06A
:1017F00085E397E00E94281E00628A8D883C31F4C0
:101800008AEA96E09AD3892B09F4046061DF4FE0FD
:10181000489F9001499F300D112437FF02C021508D
:101820003C4F732E770C7708E32EE594E594F72C64
:101830002CED35E0DC010E94443120E034E040E052
:1018400050E00E940B3149015A019701ACE9BFEF0A
:101850000E942F31860E971EA81EB91E84E188169D
:101860009104A104B1040CF0F0C096E0E916F10473
:1018700009F0EBC09F928F927F92EF9284E392E007
:101880009F938F93CE0101967C019F938F930E942B
:101890007A3140E855E260E070E084E694E015DAE1
:1018A0006EE372E084E694E044DCB70184E694E001
:1018B00040DC0FB6F894DEBF0FBECDBF00FF15C0F1
:1018C00080E397E00E94371B6EE372E080E397E0CD
:1018D0000E944B1B40E061E080E397E00E94811B87
:1018E000B70180E397E00E944B1B22E0E22EF12C2F
:1018F00022E330E040E050E067E174E089E40E94D8
:10190000F1269FEF21EE84E0915020408040E1F7E6
:1019100000C0000022E330E040E050E067E174E006
:1019200089E40E94F1269FEF21EE84E0915020404F
:101930008040E1F700C0000022E330E040E050E0EA
:1019400067E174E089E40E94F1269FEF23EC89E0CF
:10195000915020408040E1F700C0000026E930E0CF
:1019600040E050E067E174E089E40E94F1269FEFD7
:1019700023EC89E0915020408040E1F700C0000056
:1019800026E930E040E050E067E174E089E40E943D
:10199000F1269FEF23EC89E0915020408040E1F751
:1019A00000C0000026E930E040E050E067E174E06C
:1019B00089E40E94F1269FEF25EA8EE091502040B5
:1019C0008040E1F700C0000022E330E040E050E05A
:1019D00067E174E089E40E94F1269FEF21EE84E044
:1019E000915020408040E1F700C0000022E330E049
:1019F00040E050E067E174E089E40E94F1269FEF47
:101A000021EE84E0915020408040E1F700C00000CA
:101A100022E330E040E050E067E174E089E40E94B6
:101A2000F1269FEF27E883E1915020408040E1F7C5
:101A300000C00000EA94EF2809F074C189E40E9414
:101A4000732A80E397E00E94371B05FF73C182E091
:101A50000E942522813009F06DC140E855E260E026
:101A600070E084E694E031D96BE472E084E694E0BF
:101A700060DB63E572E084E694E05BDB780121E003
:101A8000E222FF2400FF16C080E397E00E94371B8C
:101A900065E672E080E397E00E944B1B40E061E066
:101AA00080E397E00E94811B66E772E080E397E0A5
:101AB0000E944B1B82E00E9425228130D9F38FEFD8
:101AC00095EA2EE0815090402040E1F700C00000F0
:101AD00067E872E084E694E02CDB66E972E084E675
:101AE00094E027DBE114F104B1F080E397E00E9479
:101AF000371B67E872E080E397E00E944B1B40E0F1
:101B000061E080E397E00E94811B66EA72E080E377
:101B100097E00E944B1B5DDD61E085E397E00E944A
:101B20000B1F8FEF99E628E1815090402040E1F7AC
:101B300000C0000065EB72E084E694E0FADA66E942
:101B400072E084E694E0F5DAE114F104B1F080E3A8
:101B500097E00E94371B65EB72E080E397E00E94FC
:101B60004B1B40E061E080E397E00E94811B66EA46
:101B700072E080E397E00E944B1B2BDD62E085E37F
:101B800097E00E940B1F8FEF95EA2EE08150904066
:101B90002040E1F700C0000066EC72E084E694E0CB
:101BA000C8DA66E972E084E694E0C3DAE114F1048D
:101BB000B1F080E397E00E94371B66EC72E080E3AF
:101BC00097E00E944B1B40E061E080E397E00E94B9
:101BD000811B66EA72E080E397E00E944B1BF9DC10
:101BE00063E085E397E00E940B1F8FEF95EA2EE0FC
:101BF000815090402040E1F700C0000061ED72E0AC
:101C000084E694E096DA6DED72E084E694E091DA91
:101C1000E114F104B1F080E397E00E94371B67EE16
:101C200072E080E397E00E944B1B40E061E080E3BC
:101C300097E00E94811B68EF72E080E397E00E94CA
:101C40004B1B8FEF9DE329E4815090402040E1F74A
:101C500000C0000066E972E084E694E06ADAE1140C
:101C6000F10481F080E397E00E94371B40E061E0DF
:101C700080E397E00E94811B66EA72E080E397E0D0
:101C80000E944B1B89E0882E83E0982ECE0101969E
:101C90005C0181E00E942522811148C09601AE01BD
:101CA000425E5F4FBE01605E7F4F85E397E00E941A
:101CB000851E89A18F9388A18F939F928F92BF9247
:101CC000AF920E947A31B50184E694E032DA0F9047
:101CD0000F900F900F900F900F90E114F104C9F244
:101CE00040E060E080E397E00E94811BB50180E363
:101CF00097E00E944B1BCDCF822F2ACD80E397E047
:101D00000E94E81A892B09F033CD80E397E00E9406
:101D1000B71B81E090E09093A7068093A60601E0B0
:101D200010E028CDEE24E394F12CE2CD80E397E09F
:101D30000E94371B1093A7060093A606C801A19620
:101D40000FB6F894DEBF0FBECDBFDF91CF911F91CC
:101D50000F91FF90EF90DF90CF90BF90AF909F904A
:101D60008F907F9008958091A6069091A706089580
:101D7000FF920F931F93CF93DF93F82E8B01DDB368
:101D8000EF980E94601AC82F80E70E94751AC80F4A
:101D90008F2D0E94F519C80F0E94D8190E94601A51
:101DA000C80F81E70E94751AC80FC8010E94141A53
:101DB000C80F0E94361A9DB3D078D92BDDBBC80F4F
:101DC00081E009F480E0DF91CF911F910F91FF90A6
:101DD0000895FF920F931F93CF93DF931F92CDB778
:101DE000DEB719820DB3EF980E94601A182F80E7B2
:101DF0000E94751A180F84E10E94F519180F0E94AD
:101E0000D8190E94601A180F81E70E94751A180FDE
:101E1000CE0101960E94141A180F0E94361A180F4C
:101E20008981807E89830E94601A180F80E70E9452
:101E3000751A180F84E10E94F519180F89810E9404
:101E4000F519180F0E94D8190E94601A180F80E720
:101E50000E94751A180F8BE00E94F519180F0E9446
:101E6000D8190E94601A180F81E70E94751A180F7E
:101E7000CE0101960E94141A180F0E94361A180FEC
:101E8000FF24F394F9820E94601A180F80E70E94E1
:101E9000751A180F8BE00E94F519180F89810E949E
:101EA000F519180F0E94D8198DB30078082B0DBBB7
:101EB0008FEF9FEF111104C0F092A90690E080E02F
:101EC0000F90DF91CF911F910F91FF900895CF93C5
:101ED000DF931F92CDB7DEB7BE016F5F7F4F80E00B
:101EE00047DF811104C081E09981923009F080E0E0
:101EF0000F90DF91CF9108955C982FEF81EE94E0E1
:101F0000215080409040E1F700C000005C9A2FEF24
:101F10008FE097E2215080409040E1F700C0000040
:101F2000089582E494E00E94D603892B29F082E48C
:101F300094E00E940104F5CF0895BF92CF92DF9202
:101F4000EF92FF920F931F93CF93DF93CDB7DEB73E
:101F500060970FB6F894DEBF0FBECDBF549A5C9861
:101F6000569A5E9855985D980E94322240E056E954
:101F700060E070E082E494E00E9465065E9ABCDF57
:101F8000D0DF82E494E00E94230467E173E082E4FE
:101F900094E0AFD88E010F5F1F4F7801D12CC12C78
:101FA00026E0B22EB00E82E494E00E94D603892B84
:101FB00029F58FE99FE00197F1F700C000009FEF3E
:101FC000C91AD90AA9ECCA16D10468F384E694E0C8
:101FD0000E94E406EE24EA94FE2CC70160960FB638
:101FE000F894DEBF0FBECDBFDF91CF911F910F914F
:101FF000FF90EF90DF90CF90BF90089582E494E03F
:102000000E940104F70181937F01BE12CCCF1F8291
:1020100062E273E0C8010E946A317C01892B09F0F9
:102020005CC181E08093AB069CEBC92E96E0D92E73
:1020300010E000E082E494E00E94D603892BD1F303
:1020400082E494E00E940104D6018D936D018D30ED
:1020500009F046C1F801E454F94F108215E082E41A
:1020600094E00E94D603892BD1F382E494E00E948D
:1020700001041150A1F755DF69E273E082E494E0B6
:1020800038D816E082E494E00E94D603892BD1F37D
:1020900082E494E00E9401041150A1F70CEA16E0DA
:1020A00082E494E00E94D603892BD1F382E494E089
:1020B0000E940104F801EC5AF640D8018D938D017D
:1020C0008D3071F7E455F94F108215E082E494E009
:1020D0000E94D603892BD1F382E494E00E9401048C
:1020E0001150A1F71EDF81E00E942522882309F408
:1020F000F0C039DE80FF18C040E060E080E397E088
:102100000E94811B64E373E080E397E00E944B1B15
:1021100040E061E080E397E00E94811B65E473E0AA
:1021200080E397E00E944B1B40E855E260E070E0DE
:1021300084E694E00E94650664E373E084E694E03C
:102140000E94990866E573E084E694E00E9499088D
:1021500068E673E08CEB96E00E94733163E773E00E
:102160008CEA96E00E94733168E773E082E494E0C1
:102170000E947908BFEFE3ECF9E0B150E040F04095
:10218000E1F700C000006DE873E082E494E00E9493
:1021900079082FEF83EC99E0215080409040E1F7DF
:1021A00000C000006CE973E082E494E00E947908CA
:1021B000AFEFB3ECE9E0A150B040E040E1F700C080
:1021C000000060EB73E082E494E00E947908FFEF86
:1021D00023EC89E0F15020408040E1F700C000008E
:1021E00082E494E00E9423049FEFABE6BBE69150AB
:1021F000A040B040E1F700C00000B5DD80FF1CC08A
:1022000080E397E00E94371B40E060E080E397E0C6
:102210000E94811B6CEB73E080E397E00E944B1BF4
:1022200040E061E080E397E00E94811B6CEB76E088
:1022300080E397E00E944B1B6CEB73E084E694E034
:102240000E9499086CEB76E084E694E00E9499087D
:10225000EFEFFBE722E9E150F0402040E1F700C05A
:10226000000081DD80FF1CC080E397E00E94371BE7
:1022700040E060E080E397E00E94811B67EC73E040
:1022800080E397E00E944B1B40E061E080E397E031
:102290000E94811B6CEA76E080E397E00E944B1B72
:1022A00066EC73E084E694E00E9499086CEA76E0BC
:1022B00084E694E00E9499088FEF9BE7A2E98150A1
:1022C0009040A040E1F700C0000080E397E00E944A
:1022D000371B5E9826DE10DE80CE82E494E078CE56
:1022E0000F5F1F4F0032110509F0A4CEB7CEFF9249
:1022F0000F931F93CF93DF93F82E8B01DDB3EF98ED
:102300000E94601AC82F86ED0E94751AC80F8F2D83
:102310000E94F519C80F0E94601AC80F87ED0E942D
:10232000751AC80FC8010E94141AC80F0E94D81944
:102330008DB3D078D82BDDBB81E0C11101C080E026
:10234000DF91CF911F910F91FF900895AF92BF92AF
:10235000CF92DF92EF92FF920F931F93CF93DF9371
:102360001F92CDB7DEB7D82EA62E7A010DB3EF9807
:102370000E94601A182F86ED0E94751A180F8D2D75
:1023800080680E94F519180F0E94601A180F87EDD7
:102390000E94751A180F6701B12CF12CE12CEA1478
:1023A000FB0481F0CE0101960E94141A180F898156
:1023B000F60181936F01FFEFEF1AFF0AEA14FB04A5
:1023C000A9F4F6D78DB30078082B0DBB81E011116D
:1023D00001C080E00F90DF91CF911F910F91FF908E
:1023E000EF90DF90CF90BF90AF9008950E944B1A6E
:1023F000180FD5CF0F931F93CF93DF93082F162F6E
:10240000DDB3EF980E94601AC82F86ED0E94751AFE
:10241000C80F802FEAD7C80F812FE7D7C80FC8D7BA
:102420008DB3D078D82BDDBB81E0C11101C080E035
:10243000DF91CF911F910F910895CF92DF92EF928C
:10244000FF920F931F93CF93DF9300D000D0CDB7AF
:10245000DEB76C017B018A01AE014F5F5F4F66E022
:1024600088E274DF811120C089819A81F60191830D
:1024700080838B819C81F701918380838D819E81F4
:10248000F8019183808390E080E026960FB6F8945F
:10249000DEBF0FBECDBFDF91CF911F910F91FF9097
:1024A000EF90DF90CF9008958FEF9FEFEECF2F92B8
:1024B0003F924F925F926F927F928F929F92AF92D4
:1024C000BF92CF92DF92EF92FF920F931F93CF9321
:1024D000DF9300D000D000D01F92CDB7DEB77C01D3
:1024E000BE01695F7F4F8EE202DF8823D9F08FEF54
:1024F0009FEF2A960FB6F894DEBF0FBECDBFDF91D7
:10250000CF911F910F91FF90EF90DF90CF90BF90F0
:10251000AF909F908F907F906F905F904F903F9083
:102520002F90089560E08EE265DF8111E0CF109278
:10253000DD061092DE061092DF061092E006109281
:10254000E1061092E2061092E3061092E406109261
:10255000E5061092E6061092E7061092E80610E0F3
:1025600000E00E151F0509F467C0BE01685F7F4FCC
:1025700087E2BDDE8111BBCF888583FFF6CFAE0138
:102580004F5F5F4FBE016D5F7F4FCE01059655DFF8
:10259000892B09F0ACCF8D819E81092E000CAA0BEE
:1025A000BB0B4091DD065091DE066091DF06709115
:1025B000E006840F951FA61FB71F8093DD0690933A
:1025C000DE06A093DF06B093E0068B819C81092E86
:1025D000000CAA0BBB0B4091E1065091E206609102
:1025E000E3067091E406840F951FA61FB71F809322
:1025F000E1069093E206A093E306B093E406898196
:102600009A81092E000CAA0BBB0B4091E506509154
:10261000E6066091E7067091E806840F951FA61FF5
:10262000B71F8093E5069093E606A093E706B09364
:10263000E8060F5F1F4F95CFF12CE12C6091DD066E
:102640007091DE068091DF069091E006A701980167
:102650000E940B312093DD063093DE064093DF06A7
:102660005093E0066091E1067091E2068091E306E6
:102670009091E406A70198010E940B312093E10696
:102680003093E2064093E3065093E4066091E5063A
:102690007091E6068091E7069091E806A7019801FF
:1026A0000E940B312093E5063093E6064093E7063F
:1026B0005093E8061092E9061092EA061092EB0693
:1026C0001092EC061092ED061092EE061092EF06B4
:1026D0001092F0061092F1061092F2061092F30694
:1026E0001092F406312C212C0215130509F4FBC0BD
:1026F000BE01685F7F4F87E2FADD8111F8CE8885E1
:1027000083FFF6CFAE014F5F5F4FBE016D5F7F4F1E
:10271000CE01059692DE892B09F0E9CE2D813E810E
:102720003A872987C090DD06D090DE06E090DF066C
:10273000F090E006B901330F880B990B6C197D09F5
:102740008E099F090E94082F2B013C018090E90609
:102750009090EA06A090EB06B090EC06A5019401DB
:102760000E94093018160CF06AC04092E906509297
:10277000EA066092EB067092EC062B813C813A8768
:102780002987C090E106D090E206E090E306F09041
:10279000E406B901330F880B990B6C197D098E097A
:1027A0009F090E94082F2B013C018090ED0690901C
:1027B000EE06A090EF06B090F006A50194010E94ED
:1027C000093018160CF057C04092ED065092EE06F4
:1027D0006092EF067092F00629813A813A87298744
:1027E000C090E506D090E606E090E706F090E80697
:1027F000B901330F880B990B6C197D098E099F095C
:102800000E94082F2B013C018090F1069090F20667
:10281000A090F306B090F406A50194010E9409303F
:1028200018160CF044C04092F1065092F2066092E5
:10283000F3067092F4069FEF291A390A55CFA501C5
:1028400094015058C301B2010E94692E87FF95CFB1
:1028500089859A85C81AD90AB601DD0C880B990BAF
:102860000E94082F6093E9067093EA068093EB06B6
:102870009093EC0682CFA50194015058C301B20198
:102880000E94692E87FFA8CF89859A85C81AD90A20
:10289000B601DD0C880B990B0E94082F6093ED06A2
:1028A0007093EE068093EF069093F00695CFA50106
:1028B00094015058C301B2010E94692E87FFBBCF1B
:1028C00089859A85C81AD90AB601DD0C880B990B3F
:1028D0000E94082F6093F1067093F2068093F3062E
:1028E0009093F406A8CF2091270730912807609194
:1028F000E9067091EA068091EB069091EC068090D3
:10290000ED069090EE06A090EF06B090F006C09015
:10291000F106D090F206E090F306F090F406203D28
:1029200047E0340709F04EC020E030E04CE852E4C4
:102930000E94143020E030E04AE754E40E946D2EFB
:102940006093E9067093EA068093EB069093EC0699
:1029500020E030E04CE852E4C501B4010E9414309C
:1029600020E030E04AE754E40E946D2E6093ED06CB
:102970007093EE068093EF069093F00620E030E02F
:102980004CE852E4C701B6010E94143020E030E068
:102990004AE754E40E946D2E6093F1067093F206AC
:1029A0008093F3069093F4066F818EE223DD21E09D
:1029B00030E0811102C030E020E088279927821B97
:1029C000930B97CD243F314079F520E030E04CE87F
:1029D00051E40E94143020E030E04AE754E40E94C1
:1029E0006D2E6093E9067093EA068093EB06909350
:1029F000EC0620E030E04CE851E4C501B4010E944F
:102A0000143020E030E04AE754E40E946D2E6093D9
:102A1000ED067093EE068093EF069093F00620E0AB
:102A200030E04CE851E4AECF20E030E04CE051E43F
:102A30000E94143020E030E04AE754E40E946D2EFA
:102A40006093E9067093EA068093EB069093EC0698
:102A500020E030E04CE051E4C501B4010E941430A4
:102A600020E030E04AE754E40E946D2E6093ED06CA
:102A70007093EE068093EF069093F00620E030E02E
:102A80004CE051E47FCFDF92EF92FF920F931F93C0
:102A9000CF93DF931F92CDB7DEB78C017B01D42E8D
:102AA0006F98779A809A089A099A10981198083F17
:102AB00082E0180789F46FEC80E29CDC8823E1F067
:102AC0000EEF1FEFC8010F90DF91CF911F910F9173
:102AD000FF90EF90DF9008956FE80C3781E01807C2
:102AE00059F36FE40E3B110539F36FE00F35110513
:102AF00019F30FEF1FEFE6CF10932607009325077A
:102B000066E181E277DC8111DBCF60E0D11064E027
:102B100082E270DC8111D4CF60E280EDE81687E0BC
:102B2000F80659F060E184EFE81681E0F80629F034
:102B30008AEFE816F104E9F660E083E25BDC8111DC
:102B4000BFCFF0922807E092270761E1D11061E53D
:102B500084E250DC8111B4CFDD2011F08CE5D82E59
:102B60006D2D8EE247DC8111ABCF84E690E09FDCD7
:102B70008C01892B09F0A4CF109201071092020753
:102B8000109203071092040710920507109206078F
:102B900010920707109208071092090710920A076F
:102BA00010920B0710920C0710920D0710920E074F
:102BB00010920F071092100710921107109212072F
:102BC000109213071092140710921507109216070F
:102BD0001092170710921807EF98BE016F5F7F4F92
:102BE0008FE285DB898185FD11C0F12CE12C898183
:102BF0008F718E151F0451F04CF049E257E066E0EA
:102C000088E2A4DB8FEFE81AF80AF1CF80916A001E
:102C1000806C80936A00EF9A81E080932F0752CFF7
:102C20001F920F920FB60F9211240BB60F924F9274
:102C30005F926F927F928F929F92AF92BF92CF924C
:102C4000DF92EF92FF920F931F932F933F934F9337
:102C50005F936F937F938F939F93AF93BF93EF9304
:102C6000FF93CF93DF931F92CDB7DEB77894BE0169
:102C70006F5F7F4F8FE23BDB8981807C09F4C0C2AC
:102C800010E000E089818F718017110681F37CF3D9
:102C900049E257E066E088E259DB609129077091CC
:102CA0002A078091DD069091DE06681B790B072EBE
:102CB000000C880B990B0E94082F4B015C0180923D
:102CC000F5069092F606A092F706B092F80660918B
:102CD0002B0770912C078091E1069091E206681B0A
:102CE000790B072E000C880B990B0E94082F6B01A3
:102CF0007C01C092F906D092FA06E092FB06F092AF
:102D0000FC0660912D0770912E078091E506909149
:102D1000E606681B790B072E000C880B990B0E94A6
:102D2000082F2B013C014092FD065092FE06609256
:102D3000FF06709200078091270790912807843F33
:102D400021E0920709F40AC2803D27E0920749F189
:102D50008A3F910509F055C029E23CE54FE05CE36C
:102D6000C501B4010E9414306093F5067093F60615
:102D70008093F7069093F80629E23CE54FE05CE388
:102D8000C701B6010E9414306093F9067093FA06E9
:102D90008093FB069093FC0629E23CE54FE05CE360
:102DA00024C029E23CE54FE85DE3C501B4010E947F
:102DB00014306093F5067093F6068093F7069093AF
:102DC000F80629E23CE54FE85DE3C701B6010E9441
:102DD00014306093F9067093FA068093FB06909383
:102DE000FC0629E23CE54FE85DE3C301B2010E9425
:102DF00014306093FD067093FE068093FF06909357
:102E00000007C090F506D090F606E090F706F09027
:102E1000F8068090E9069090EA06A090EB06B09044
:102E2000EC06A5019401C701B6010E94093087FF95
:102E30000AC0A50194015058C701B6010E94692E2D
:102E400018160CF44BC020910107309102074091F5
:102E5000030750910407C701B6010E948C2D4B0156
:102E60005C016091250770912607660F771F90E03F
:102E700080E00E94062F9B01AC01C501B4010E94B5
:102E80006D2E20910D0730910E0740910F07509144
:102E900010070E948C2D60930D0770930E0780938E
:102EA0000F0790931007C0920107D0920207E0929B
:102EB0000307F09204078091190790911A07A091D7
:102EC0001B07B0911C070196A11DB11D8093190726
:102ED00090931A07A0931B07B0931C07C090F906A4
:102EE000D090FA06E090FB06F090FC068090ED068C
:102EF0009090EE06A090EF06B090F006A501940128
:102F0000C701B6010E94093087FF0AC0A5019401DC
:102F10005058C701B6010E94692E18160CF44BC018
:102F20002091050730910607409107075091080747
:102F3000C701B6010E948C2D4B015C0160912507F1
:102F400070912607660F771F90E080E00E94062FA1
:102F50009B01AC01C501B4010E946D2E20911107A7
:102F60003091120740911307509114070E948C2D45
:102F700060931107709312078093130790931407BF
:102F8000C0920507D0920607E0920707F092080763
:102F900080911D0790911E07A0911F07B0912007F7
:102FA0000196A11DB11D80931D0790931E07A0934C
:102FB0001F07B0932007C090FD06D090FE06E0905A
:102FC000FF06F09000078090F1069090F206A09026
:102FD000F306B090F406A5019401C701B6010E9462
:102FE000093087FF0AC0A50194015058C701B601F6
:102FF0000E94692E18160CF44BC0209109073091DD
:103000000A0740910B0750910C07C701B6010E94B7
:103010008C2D4B015C016091250770912607660F8E
:10302000771F90E080E00E94062F9B01AC01C50154
:10303000B4010E946D2E2091150730911607409122
:103040001707509118070E948C2D609315077093F5
:1030500016078093170790931807C0920907D0921C
:103060000A07E0920B07F0920C07809121079091DC
:103070002207A0912307B09124070196A11DB11D3D
:103080008093210790932207A0932307B0932407EE
:10309000C0900D07D0900E07E0900F07F09010073A
:1030A00020E030E0A901C701B6010E94692E20E0AE
:1030B00030E044EB53E487FF76C0C701B6010E94BD
:1030C0008C2D60930D0770930E0780930F079093DC
:1030D0001007C0901107D0901207E0901307F090EE
:1030E000140720E030E0A901C701B6010E94692E53
:1030F00020E030E044EB53E487FF64C0C701B60131
:103100000E948C2D60931107709312078093130710
:1031100090931407C0901507D0901607E0901707FA
:10312000F090180720E030E0A901C701B6010E9425
:10313000692E20E030E044EB53E487FF52C0C70122
:10314000B6010E948C2D609315077093160780932B
:103150001707909318070F5F1F4F94CD29E23CE5A6
:103160004FE85CE3C501B4010E9414306093F5069A
:103170007093F6068093F7069093F80629E23CE5F3
:103180004FE85CE3C701B6010E9414306093F90672
:103190007093FA068093FB069093FC0629E23CE5C7
:1031A0004FE85CE322CEC701B6010E94093087FDDB
:1031B00090CF20E030E044EB53E4C701B6010E9419
:1031C0008B2D7FCFC701B6010E94093087FDA2CFAA
:1031D00020E030E044EB53E4C701B6010E948B2DA0
:1031E00091CFC701B6010E94093087FDB4CF20E01E
:1031F00030E044EB53E4C701B6010E948B2DA3CF0E
:103200000F90DF91CF91FF91EF91BF91AF919F917F
:103210008F917F916F915F914F913F912F911F916E
:103220000F91FF90EF90DF90CF90BF90AF909F9065
:103230008F907F906F905F904F900F900BBE0F908C
:103240000FBE0F901F90189540E06AEF70E08EEB74
:1032500090E019DC009721F421E020932F070895D6
:103260008FEF9FEF089541E06AEF70E08EEB90E002
:103270000ADC009721F422E020932F0708958FEFB6
:103280009FEF0895CF93DF931F92CDB7DEB7BE01B6
:103290006F5F7F4F8FE02BD8811104C081E099814F
:1032A000943D09F080E00F90DF91CF910895CF9386
:1032B000DF931F92CDB7DEB780912F07823021F5C3
:1032C000BE016F5F7F4F8FE212D8882341F060E02C
:1032D00070E080E090EC0F90DF91CF9108958981AC
:1032E00086FD09C060911507709116078091170738
:1032F00090911807F0CFBE016F5F7F4F8EE20E9462
:103300007711882379F3E3CF60E070E080E89FEBEA
:10331000E2CF80912F07823099F510921907109211
:103320001A0710921B0710921C0710921D0710928B
:103330001E0710921F07109220071092210710926B
:103340002207109223071092240710920D07109263
:103350000E0710920F07109210071092110710928B
:10336000120710921307109214071092150710926B
:103370001607109217071092180790E080E0089542
:103380008FEF9FEF0895509825E02A95F1F7000000
:1033900081ED97E0489907C0019729F025E02A952B
:1033A000F1F70000F7CF89B180958170819508957C
:1033B000519A85E08A95F1F70000509885E08A954A
:1033C000F1F7000051980895519885E08A95F1F73A
:1033D0000000D9DF811107C0499B03C0509A81E0EA
:1033E0000895509A08958FEF0895CF93DF93D82FC3
:1033F000C8E0D7FF13C0519885E08A95F1F7000027
:10340000C2DF81110DC0509A85E08A95F1F7000066
:10341000DD0FC15071F7DF91CF91D6CF519AECCF2C
:103420008FEFDF91CF9108950F931F93CF93DF9389
:103430008C01D8E0C0E0519885E08A95F1F7000052
:10344000A2DF811111C0CC0F4999C160509A95E05B
:103450009A95F1F70000D15071F7F801C083DF9120
:10346000CF911F910F9108958FEFF9CF519885E07B
:103470008A95F1F7000087DF81110BC095E09A95DE
:10348000F1F70000509A95E09A95F1F700005198F5
:1034900008958FEF0895519A85E08A95F1F700001D
:1034A00072DF81110BC095E09A95F1F70000509AF8
:1034B00095E09A95F1F70000519808958FEF0895DF
:1034C00062DF811110C0519895E09A95F1F70000E4
:1034D000519A95E09A95F1F70000509A95E09A95E7
:1034E000F1F7000008958FEF08951F93CF93DF93B6
:1034F000182FD0E0C0E0812F78DF882391F0C83EFC
:1035000083E0D80761F095E09A95F1F7000050DF6D
:1035100085E08A95F1F70000D3DF882361F08FEF13
:1035200006C081E0C83ED34009F080E08195DF917C
:10353000CF911F9108952196DECF1F93CF93DF93F4
:1035400080913407882301F1162FDDB3EF98B8DF9F
:10355000C82F8CE7CADFC80F80E447DFC80F812F70
:1035600044DFC80F25DF8DB3D078D82BDDBB81E0D9
:1035700090E0C11102C090E080E0919581959109A1
:10358000DF91CF911F9108958FEF9FEFF9CF1F9398
:10359000CF93DF93182FDDB3EF9892DFC82F8CE71E
:1035A000A4DFC80F80E021DFC80F812F1EDFC80F06
:1035B000FFDE8DB3D078D82BDDBB80EA8A95F1F79A
:1035C00081E0C11101C080E0DF91CF911F9108958A
:1035D000CF93DF93809107018062809307018091F0
:1035E00008018F7D809308018FE19EE40197F1F738
:1035F00000C0000080910801806280930801EFE123
:10360000FEE43197F1F700C00000DDB3EF9889E3E5
:10361000BEDFC82F84E1BBDFC80F87E7B8DFC80F64
:103620008DE5B5DFC80F8DE6B2DFC80F8CE0AFDFE8
:10363000C80F86E0ACDFC80F80E8A9DFC80F81E0C3
:10364000A6DF9DB3D078D92BDDBBEFE9FFE0319742
:10365000F1F700C00000C80F8FEF9FEF29F481E061
:103660008093340790E080E0DF91CF9108958091BE
:103670003407811103C08FEF9FEF089581E087DF4A
:103680008111F9CF8FE39FE10197F1F700C00000AE
:1036900090E080E00895EF92FF920F931F93CF93F5
:1036A000DF9380913407882349F17B01DDB3EF98E4
:1036B00007DFC82F8CE719DFC80F80E496DEC80F3C
:1036C0008701F80181918F01882319F08EDEC80FE0
:1036D000F8CF6EDE8DB3D078D82BDDBB81E090E0E3
:1036E000C11102C090E080E0919581959109DF9130
:1036F000CF911F910F91FF90EF9008958FEF9FEF63
:10370000F6CF0F931F93CF93DF93809134078823D5
:1037100059F1623048F5403138F5142F062FDDB3EA
:10372000EF98CEDEC82F8CE7E0DEC80F80E05DDECC
:10373000C80F812F0023B1F0806C57DEC80F38DE30
:103740008DB3D078D82BDDBB81E090E0C11102C0F1
:1037500090E080E0919581959109DF91CF911F9143
:103760000F9108958068E9CF8FEF9FEFF6CF80919A
:103770003407882311F09C9AA49A0895E0E3F7E0B7
:103780001382128288ED93E09183808308950F93D2
:103790001F93CF93DF93EC010DE517E0F80124852B
:1037A000358546855785688179818A819B810E940C
:1037B0001430688379838A839B83F8012089318957
:1037C000428953896C817D818E819F810E94143052
:1037D0006C837D838E839F83F80124893589468994
:1037E0005789688579858A859B850E94143068870A
:1037F00079878A879B87DF91CF911F910F910895D9
:103800000F931F93CF93DF93EC010DE517E0F801C1
:103810002081318142815381688179818A819B81B4
:103820000E948B2D688379838A839B83F80124818E
:103830003581468157816C817D818E819F810E9477
:103840008B2D6C837D838E839F83F801208531854A
:1038500042855385688579858A859B850E948B2D55
:10386000688779878A879B87DF91CF911F910F9116
:1038700008950F931F93CF93DF93082F162FDDB377
:10388000EF981EDEC82F8CE330DEC80F802FADDD31
:10389000C80F812FAADDC80F8BDD8DB3D078D82B50
:1038A000DDBB81E0C11101C080E0DF91CF911F91AC
:1038B0000F9108959F92AF92BF92CF92DF92EF92B5
:1038C000FF920F931F93CF93DF931F92CDB7DEB775
:1038D000D82E962E7A010DB3EF98F2DD182F8CE3D7
:1038E00004DE180F8D2D806880DD180FE9DD180FBC
:1038F0008DE3FBDD180F6701A92CB12CCE010196D9
:1039000093DD180F8981F60181936F01CF018E1924
:103910009F09A816B906B1F44BDD8DB30078082BCA
:103920000DBB81E0111101C080E00F90DF91CF91BC
:103930001F910F91FF90EF90DF90CF90BF90AF90CD
:103940009F900895A8DD180F8C2D8E198915B0F25F
:10395000E4CFAF92BF92CF92DF92EF92FF921F938C
:10396000CF93DF9300D000D0CDB7DEB77C016111DB
:1039700008C061E082E07DDF6599FECF60E082E013
:1039800078DFAE014F5F5F4F66E083E093DF182F73
:10399000811156C0698170E0762F66278A81680F91
:1039A000711D611580EF780709F44AC08D8190E0A0
:1039B000982F8827CE80C80ED92ED11CC114E0EFD5
:1039C000DE06F1F18B8190E0982F8827AC80A80E5D
:1039D000B92EB11CA114F0EFBF0691F1072E000C17
:1039E000880B990B0E94082FF701608371838283F3
:1039F0009383B601DD0C880B990B0E94082FF70109
:103A00006483758386839783B501BB0C880B990B00
:103A10000E94082FF7016087718782879387812F23
:103A200026960FB6F894DEBF0FBECDBFDF91CF91C3
:103A30001F91FF90EF90DF90CF90BF90AF900895CF
:103A400011E0EDCF2F923F924F925F926F927F9253
:103A50008F929F92AF92BF92CF92DF92EF92FF929E
:103A60000F931F93CF93DF93CDB7DEB72C970FB68D
:103A7000F894DEBF0FBECDBF9C878B878B015A8722
:103A800049871901DC014D905D906D907C901397F2
:103A900014968D919D910D90BC91A02D89839A8350
:103AA000AB83BC83AB85BC8518968D919D910D90A1
:103AB000BC91A02D8D839E83AF83B887A301920113
:103AC000C301B2010E9414306B017C0129813A814B
:103AD0004B815C81CA01B9010E9414309B01AC0189
:103AE000C701B6010E948C2D6B017C012D813E81A6
:103AF0004F815885CA01B9010E9414309B01AC0165
:103B0000C701B6010E948C2D0E947B306B017C01A5
:103B100020E030E0A9010E94692E882309F496C0B4
:103B2000A701960160E070E080E89FE30E946D2E9F
:103B30004B015C01A30192010E941430EB85FC85CE
:103B4000608371838283938329813A814B815C8175
:103B5000C501B4010E941430AB85BC8514966D93E9
:103B60007D938D939C9317972D813E814F8158852E
:103B7000C501B4010E941430EB85FC856087718714
:103B800082879387D101CD92DD92ED92FC921397BB
:103B90002081318142815381648175818681978141
:103BA0000E94162E905820EE3EE245E652E40E9416
:103BB00014306B017C0120E030E0A9010E94692EE5
:103BC00087FD35C0F801C082D182E282F382EB85A5
:103BD000FC8560857185828593850E94F02D9058C3
:103BE00020EE3EE245E652E40E941430A985BA85F3
:103BF0006D937D938D939C93139780E02C960FB6D5
:103C0000F894DEBF0FBECDBFDF91CF911F910F9112
:103C1000FF90EF90DF90CF90BF90AF909F908F90EC
:103C20007F906F905F904F903F902F90089520E08D
:103C300030E044EB53E4C701B6010E948C2DD8015B
:103C40006D937D938D939C931397C1CF81E0D6CFD5
:103C5000CF93DF931F92CDB7DEB76D98759A60E072
:103C600082E007DE811130C068E103DE60E281E0BE
:103C700000DE81E090E090935C0780935B07AE01EB
:103C80004F5F5F4F61E080E015DE6981637E69838D
:103C9000686180E0EEDD4CE050E06CE070E089E6C9
:103CA00097E00E9442344CE050E070E060E08DE527
:103CB00097E00E94423481E080935A0790E080E0D0
:103CC0000F90DF91CF9108958FEF9FEFF9CFCF93B2
:103CD000DF9300D0CDB7DEB7AE014F5F5F4F63E03B
:103CE0008AE0E8DD81110AC09981983441F49A8113
:103CF000943329F481E09B81933309F080E00F90A5
:103D00000F900F90DF91CF9108958F929F92AF9275
:103D1000BF92CF92DF92EF92FF920F931F93CF93B8
:103D2000DF93CDB7DEB768970FB6F894DEBF0FBE4E
:103D3000CDBF80915A07811115C08FEF9FEF689614
:103D40000FB6F894DEBF0FBECDBFDF91CF911F91AC
:103D50000F91FF90EF90DF90CF90BF90AF909F902A
:103D60008F90089589017A016B0161E0CE0101967F
:103D7000F0DD8111E2CFCE01019609DDCE01019681
:103D80003FDD9E01235F3F4FAE014F5E5F4FBE019F
:103D90006B5E7F4FCE01019655DE8111CECFE09153
:103DA0005B07F0915C07EE0FFF1FE452FC4F608150
:103DB0007181072E000C880B990B0E94082F9B0124
:103DC000AC0160E070E088EC92E40E946D2E2D85DD
:103DD0003E854F8558890E9414304B015C016D89E6
:103DE0007E898F89988D0E94D52EF601718360831C
:103DF00069897A898B899C890E94D52EF701718304
:103E00006083C501B4010E94D52EF80171836083DF
:103E100090E080E094CF2F923F924F925F926F920A
:103E20007F928F929F92AF92BF92CF92DF92EF924A
:103E3000FF920F931F93CF93DF93CDB7DEB76C97AD
:103E40000FB6F894DEBF0FBECDBF80915A07811127
:103E50001BC08FEF9FEF6C960FB6F894DEBF0FBEBE
:103E6000CDBFDF91CF911F910F91FF90EF90DF9029
:103E7000CF90BF90AF909F908F907F906F905F900A
:103E80004F903F902F9008958FEF860F833008F06A
:103E9000A3C1162F613009F0F0C0AE01435F5F4F40
:103EA00063E080E007DD8111D4CF60E681E0E1DCF2
:103EB00061E180E0DEDC2FEF34E38CE02150304024
:103EC0008040E1F700C0000061E082E0D2DC60E009
:103ED000CE0101963EDD81117DC1C980DA80EB8083
:103EE000FC80C701B6010E94D52E7C8F6B8F4D8060
:103EF0005E806F807884C301B2010E94D52E7A8FD4
:103F0000698F89849A84AB84BC84C501B4010E9402
:103F1000D52E1B0120E030E849E054E4C701B6018A
:103F20000E94692E87FD56C120E030E844E554E444
:103F3000C701B6010E94093018160CF44BC120E0ED
:103F400030E849E054E4C301B2010E94692E87FDC4
:103F500041C120E030E844E554E4C301B2010E94CD
:103F6000093018160CF436C120E030E849E054E47A
:103F7000C501B4010E94692E01E087FD0BC020E05D
:103F800030E844E554E4C501B4010E940930181634
:103F90000CF000E06D8580E06CDC81115ACF6E85FD
:103FA00081E067DC811155CF6F8582E062DC811191
:103FB00050CF01114ECF2B8D3C8DB901330F880BA3
:103FC000990B0E94082F9B01AC0160E070E88FE321
:103FD00094E40E946D2E6093690770936A07809342
:103FE0006B0790936C07298D3A8DB901330F880BBD
:103FF000990B0E94082F9B01AC0160E070E88FE3F1
:1040000094E40E946D2E60936D0770936E07809309
:104010006F0790937007B101330C880B990B0E94C6
:10402000082F9B01AC0160E070E482E394E40E94FD
:104030006D2E60937107709372078093730790934E
:1040400074074CE050E06CE070E089E697E00E9475
:1040500052344CE050E06CE070E0CE010D960E94CE
:1040600042344CE050E0BE01635F7F4F89E697E049
:104070000E945431892B09F0ECCE60E0CE0101960C
:1040800068DC8111E6CE9FEF21EE34E091502040B4
:104090003040E1F700C00000812F8150990B9C0156
:1040A0004CE0429FC001439F900D11249C012A5C6B
:1040B000384F790160E0C9014CDC8111CACEC701DB
:1040C00066DB90E080E0133009F0C5CE2091420716
:1040D000309143074091440750914507609136075E
:1040E0007091370780913807909139070E948C2D85
:1040F00020E030E040E05FE30E94143060935D0711
:1041000070935E0780935F07909360072091460746
:1041100030914707409148075091490760913A070D
:1041200070913B0780913C0790913D070E948C2D38
:1041300020E030E040E05FE30E94143060936107CC
:1041400070936207809363079093640720915607EA
:1041500030915707409158075091590760914A078D
:1041600070914B0780914C0790914D070E948C2DC8
:1041700020E030E040E05FE30E9414306093650788
:104180007093660780936707909368074CE050E050
:1041900070E060E08DE597E00E9452344CE050E022
:1041A00070E060E0CE010D960E9442344CE050E099
:1041B000BE01635F7F4F8DE597E00E94543121E09F
:1041C00030E0892B11F430E020E088279927821B0A
:1041D000930B41CE01E0DECE8EEF9FEF3CCE1F92DF
:1041E0000F920FB60F9211240BB60F922F933F939D
:1041F0004F935F938F939F93EF93FF932091770754
:10420000273008F05EC0822F90E0FC01EE0FFF1F08
:10421000E80FF91FE658F84F8281882361F030914A
:104220000B0181E090E001C0880F2A95EAF78095A4
:10423000832380930B018091770790E00196FC0126
:10424000EE0FFF1FE80FF91FE658F84F22812223D7
:1042500061F090910B0121E030E001C0220F8A95BE
:10426000EAF7892F822B80930B01809177078F5F6C
:1042700080937707209186003091870040917807DE
:1042800050917907240F351F3093790720937807D1
:10429000883059F580E49CE9821B930B909387004A
:1042A00080938600FF91EF919F918F915F914F9145
:1042B0003F912F910F900BBE0F900FBE0F901F904C
:1042C0001895273041F480919107882349F1809116
:1042D0000B018F77C8CF283041F680917C07882367
:1042E00089F180910B018160BECF893071F4109209
:1042F0007707109279071092780780917A0790914A
:104300007B070197880F991FC9CF90E0FC01EE0F42
:10431000FF1FE80FF91FE658F84F80819181F1CF18
:1043200088E0809377072091860030918700809104
:10433000780790917907280F391F309379072093D8
:104340007807A8CF8091860090918700D0CF88EE23
:10435000860F883008F050C0F8948091760781115C
:1043600031C081E080937607109282001092810024
:104370001092800010926F00809180008260809384
:1043800080008091810088618093810088EB9BE0B0
:104390009093870080938600809181008260809353
:1043A000810080916F00816080936F00EAE7F7E001
:1043B0008CED95E0128291838083339627E0E23979
:1043C000F207C1F76851770BFB01EE0FFF1FE60FF5
:1043D000F71FE658F84F81E0828380910A0121E0BF
:1043E00030E001C0220F6A95EAF7822B80930A0120
:1043F000789490E080E008958FEF9FEF0895CA01D0
:10440000845F9140813D9740B8F488EE860F8830F4
:10441000B0F46851770BFB01EE0FFF1FE60FF71F9B
:10442000E658F84F8281882369F0F89451834083DD
:10443000789490E080E008958FEF9FEF08958EEFDD
:104440009FEF08958DEF9FEF089522B330E08150E4
:10445000990BA90102C0559547958A95E2F7CA01C3
:10446000817008959898A09A9998A19A9A98A29A7A
:104470009B98A39A0895683008F08CC0862F90E02E
:10448000FC01EE0FFF1FDF01A80FB91FAD52B84F9F
:104490002C9120FD66C0F8947091020147E050E035
:1044A000481B590B21E030E0D90101C0AA0F4A9501
:1044B000EAF75A2F5095572350930201409101017A
:1044C0004A2B4093010161114FC0209107012F77C2
:1044D0002093070120910801206820930801209172
:1044E00068002460209368002091930721112DC05B
:1044F00021E0209393071092A2001092A100109245
:10450000A000109272001092A5001092A4002091B9
:10451000A00022602093A0002091A1002861209398
:10452000A10028EC30E03093A7002093A600209152
:10453000A10022602093A1002091720021602093AD
:1045400072001092FB076093FC07E80FF91FED5211
:10455000F84F80E991E0928381838081816080833C
:10456000789490E080E0089540910401DC01119777
:1045700001C0220FAA95EAF7322F309534233093E9
:10458000040130910501232B20930501209168003F
:104590002260A8CF8FEF9FEF0895683080F470E01D
:1045A000FB01EE0FFF1FE60FF71FED52F84F808162
:1045B00080FF08C0F89481819281789408958FEFEC
:1045C0009FEF08958EEFFCCFA0D00E94860B0E9433
:1045D000ED02C0E5D5E00E9412032097E1F30E94AE
:1045E0005005F9CF1F920F920FB60F9211242F93FF
:1045F0003F938F939F93AF93BF9380919507909133
:104600009607A0919707B09198073091940723E0FF
:10461000230F2D3758F50196A11DB11D2093940746
:104620008093950790939607A0939707B093980768
:104630008091990790919A07A0919B07B0919C0750
:104640000196A11DB11D8093990790939A07A0939D
:104650009B07B0939C07BF91AF919F918F913F9122
:104660002F910F900FBE0F901F90189526E8230FE3
:104670000296A11DB11DD2CF3FB7F8948091990742
:1046800090919A07A0919B07B0919C0726B5A89B93
:1046900005C02F3F19F00196A11DB11D3FBFBA2FD4
:1046A000A92F982F8827BC01CD01620F711D811D94
:1046B000911D42E0660F771F881F991F4A95D1F719
:1046C0000895CF92DF92EF92FF92CF93DF936B0129
:1046D0007C01D2DFEB01C114D104E104F10439F40F
:1046E000DF91CF91FF90EF90DF90CF900895C4DFDE
:1046F0006C1B7D0B683E734070F381E0C81AD108D3
:10470000E108F108C851DC4FE6CF789484B58260A7
:1047100084BD84B5816084BD85B5826085BD85B565
:10472000816085BDEEE6F0E0808181608083A0E855
:10473000B0E01C92E1E8F0E010821092820010924A
:104740006F008081826080838081816080838C9112
:1047500081608C93E0EBF0E01082A1EBB0E01C9262
:10476000109270008C9184608C9380818160808332
:10477000A0E9B0E01C92E1E9F0E010821092920012
:10478000109271008081826080838081816080834B
:104790008C9181608C93A0EAB0E01C92E1EAF0E099
:1047A00010821092A2001092720080818260808339
:1047B0008081816080838C9181608C93A0E2B1E0E4
:1047C0001C92E1E2F1E0108210922201109273003B
:1047D0008081826080838081816080838C91816010
:1047E0008C93EAE7F0E08081846080838081806838
:1047F00080831092C10008958150813108F055C026
:10480000E82FF0E08827E85FFB4D8F4F0C942731AD
:104810002324272419241F2455242A243024342413
:104820003A243E24422448244C245524502456241F
:104830005A24809180008F77809380000895809122
:1048400080008F7DF9CF84B58F7784BD089584B5BE
:104850008F7DFBCF8091B0008F778093B00008955B
:104860008091B0008F7DF9CF809190008F778093F9
:1048700090000895809190008F7DF9CF80919000F5
:10488000877FF5CF8091A0008F778093A000089557
:104890008091A0008F7DF9CF8091A000877FF5CF18
:1048A000809120018F7780932001089580912001CD
:1048B0008F7DF9CF80912001877FF5CFCF93DF9354
:1048C00090E0FC01E356FE4F249184519E4FFC0181
:1048D00084918823C9F090E0880F991FFC01E15969
:1048E000FD4FA591B491FC01EB5AFD4FC591D491B8
:1048F00061110DC09FB7F8948C91209582238C9301
:104900008881282328839FBFDF91CF91089562304B
:1049100051F49FB7F8943C91822F809583238C9318
:10492000E8812E2BEFCF8FB7F894EC912E2B2C93A0
:104930008FBFEACF1F93CF93DF93282F30E0F90189
:10494000E25BFE4F8491F901E356FE4FD491F901E9
:10495000E451FE4FC491CC23A1F0162F81114CDFFE
:10496000EC2FF0E0EE0FFF1FEB5AFD4FA591B49135
:104970008FB7F894EC91111108C0D095DE23DC9329
:104980008FBFDF91CF911F910895DE2BF8CFCF938A
:10499000DF93282F30E0F901E25BFE4F8491F901AB
:1049A000E356FE4FD491F901E451FE4FC491CC235C
:1049B00099F0811121DFEC2FF0E0EE0FFF1FE55C95
:1049C000FD4FA591B491EC91ED2381E090E009F4C5
:1049D00080E0DF91CF91089580E090E0FACF0F93CF
:1049E0001F93CF93DF938230910510F482E090E023
:1049F000E091C907F091CA0730E020E0B0E0A0E004
:104A0000309799F42115310509F44AC0281B390B58
:104A100024303105D8F58A819B816115710589F1B2
:104A2000FB0193838283FE0111C040815181028189
:104A3000138148175907E0F04817590799F4109760
:104A400061F012960C93129713961C933296CF0135
:104A5000DF91CF911F910F9108950093C907109393
:104A6000CA07F4CF2115310551F04217530738F02A
:104A7000A901DB019A01BD01DF01F801C1CFEF01FE
:104A8000F9CF9093CA078093C907CDCFFE01E20FFB
:104A9000F31F819391932250310939832883D7CF13
:104AA0002091C7073091C807232B41F420910202BF
:104AB000309103023093C8072093C707209100026A
:104AC000309101022115310541F42DB73EB74091D7
:104AD000040250910502241B350BE091C707F091A9
:104AE000C807E217F307A0F42E1B3F0B281739075E
:104AF00078F0AC014E5F5F4F2417350748F04E0F3A
:104B00005F1F5093C8074093C707819391939FCF2E
:104B1000F0E0E0E09CCFCF93DF930097E9F0FC0159
:104B2000329713821282A091C907B091CA07ED0192
:104B300030E020E01097A1F420813181820F931F93
:104B40002091C7073091C8072817390709F061C0BD
:104B5000F093C807E093C707DF91CF910895EA016A
:104B6000CE17DF07E8F54A815B819E0141155105AB
:104B7000B1F7E901FB83EA8349915991C40FD51F2D
:104B8000EC17FD0761F4808191810296840F951FD7
:104B9000E90199838883828193819B838A83F0E0F2
:104BA000E0E012968D919C9113970097B9F52D91A5
:104BB0003C911197CD010296820F931F2091C70758
:104BC0003091C8072817390739F6309751F51092F8
:104BD000CA071092C907B093C807A093C707BCCFF4
:104BE000D383C28340815181840F951FC817D90791
:104BF00061F44E5F5F4F88819981480F591F51833F
:104C000040838A819B81938382832115310509F03A
:104C1000B0CFF093CA07E093C9079ECFFD01DC0136
:104C2000C0CF13821282D7CF4F925F926F927F9242
:104C30008F929F92AF92BF92CF92DF92EF92FF92AC
:104C40000F931F93CF93DF938C01009791F4CB01C7
:104C5000DF91CF911F910F91FF90EF90DF90CF9058
:104C6000BF90AF909F908F907F906F905F904F908C
:104C7000B6CEFC01E60FF71F9C0122503109E21766
:104C8000F30708F4ABC0D901CD91DC911197C61799
:104C9000D70718F1C530D10570F0CE0104978617FB
:104CA000970748F0C61BD70B2297C193D1936D93FA
:104CB0007C93CF0130DFC801DF91CF911F910F911D
:104CC000FF90EF90DF90CF90BF90AF909F908F902C
:104CD0007F906F905F904F9008955B01AC1ABD0A72
:104CE0004C018C0E9D1EA091C907B091CA07512C92
:104CF000412CF12CE12C109731F58091C707909150
:104D0000C8078815990509F05CC04616570608F0D3
:104D100058C08091000290910102009741F48DB734
:104D20009EB74091040250910502841B950BE81731
:104D3000F90708F053C0F093C807E093C707F901DB
:104D400071836083B8CF8D919C91119712966C906E
:104D5000129713967C901397A815B90559F56C0115
:104D600042E0C40ED11CCA14DB0420F1AC014A1984
:104D70005B09DA011296159780F062827382518383
:104D80004083D9016D937C93E114F10471F0D70154
:104D90001396FC93EE9312978ECF22968C0F9D1F45
:104DA000F90191838083F301EFCFF093CA07E09379
:104DB000C90781CF4816590608F42C017D01D3019B
:104DC0009ACFCB010CDE7C01009741F0AE01B80117
:104DD0000E946131C8019FDE87016DCF10E000E0C5
:104DE0006ACF4F925F926F927F928F929F92AF9213
:104DF000BF92CF92DF92EF92FF920F931F93CF93C8
:104E0000DF9300D01F921F92CDB7DEB78B0129012F
:104E10003A01909106028917C9F09F3F09F490C0AA
:104E20000F900F900F900F900F90DF91CF911F91E7
:104E30000F91FF90EF90DF90CF90BF90AF909F9039
:104E40008F907F906F905F904F900895E9E8F2E027
:104E500024912D8327FDE4CF61E030DD2D812223D5
:104E600021F08D81823009F011C24801B12CA12CB2
:104E700060E072E18AE790E0A50198010E940B31A1
:104E800029833A834B835C8369017A0191E0C91AD3
:104E9000D108E108F1082FEFC216D104E104F104B2
:104EA00009F00CF4C5C160E472E48FE090E0A50164
:104EB00098010E940B3169017A0181E0C81AD1087A
:104EC000E108F1089D81923009F03AC182E02FEFAC
:104ED000C216D104E104F10409F00CF480C160E9C8
:104EE00070ED83E090E0A50198010E940B3169010B
:104EF0007A0181E0C81AD108E108F10883E09FEF48
:104F0000C916D104E104F10409F00CF468C168E4A5
:104F100078EE81E090E0A50198010E940B316901D3
:104F20007A0181E0C81AD108E108F1089FEFC9169B
:104F3000D104E104F10411F00CF054C184E04FC13C
:104F400080930602E9E8F2E094919D839F3F09F483
:104F500067CF923009F480C058F4992309F436C021
:104F6000913009F453C097FD5BCF61E0A7DC79CFA6
:104F70002D81243009F4BEC008F494C0253099F77F
:104F8000109220011092210190912101986090933C
:104F9000210190912101916090932101282F30E00F
:104FA000F901E451FE4FE491F0E0EE0FFF1FEB5AE0
:104FB000FD4F4591549150939F0740939E07F901EF
:104FC000E356FE4FE491E0939D0746CF14BC15BC19
:104FD00094B5926094BD95B5916095BD282F30E051
:104FE000F901E451FE4FE491F0E0EE0FFF1FEB5AA0
:104FF000FD4F459154915093C2074093C107F90169
:10500000E356FE4FE491E093C00726CF1092800054
:10501000109281009091810098609093810090910E
:105020008100916090938100282F30E0F901E451D4
:10503000FE4FE491F0E0EE0FFF1FEB5AFD4F45915C
:1050400054915093BB074093BA07F901E356FE4FC2
:10505000E491E093B90700CF1092B0001092B10034
:105060009091B00092609093B0009091B1009160E7
:105070009093B100282F30E0F901E451FE4FE49104
:10508000F0E0EE0FFF1FEB5AFD4F45915491509306
:10509000B4074093B307F901E356FE4FE491E09360
:1050A000B207DACE10929000109291009091910088
:1050B00098609093910090919100916090939100ED
:1050C000282F30E0F901E451FE4FE491F0E0EE0FBB
:1050D000FF1FEB5AFD4F459154915093AD074093FC
:1050E000AC07F901E356FE4FE491E093AB0793E080
:1050F0009D83B2CE1092A0001092A1009091A100C9
:1051000098609093A1009091A10091609093A1006C
:10511000282F30E0F901E451FE4FE491F0E0EE0F6A
:10512000FF1FEB5AFD4F459154915093A6074093B2
:10513000A507F901E356FE4FE491E093A4078CCE56
:105140002FEFC216D104E104F10409F00CF49CC065
:1051500068E478EE81E090E0A50198010E940B31AF
:1051600069017A0181E0C81AD108E108F1089D813E
:10517000992309F47DC19FEFC916D104E104F1041C
:1051800009F00CF4DBCE62E17AE780E090E0A50163
:1051900094010E940B3169017A0181E0C81AD1089B
:1051A000E108F1089D81992309F447C186E09FEF4A
:1051B000C916D104E104F10491F088F0C980DA80C5
:1051C000EB80FC808AE0F594E794D794C7948A95A5
:1051D000D1F781E0C81AD108E108F10887E080938F
:1051E000B1002BC064E274EF80E090E0A50194016F
:1051F0000E940B3169017A0181E0C81AD108E108E7
:10520000F10885E09FEFC916D104E104F10439F3F8
:1052100030F362E17AE780E090E0A5019401FBD7EA
:1052200069017A0181E0C81AD108E108F108BECF0E
:1052300081E02D812111D3CF85BD2FEF3FEFA90153
:10524000411451046104710409F048C09D819230F9
:1052500009F4E3C00CF0CAC0992309F4CFC091301F
:1052600009F0DECDD0928900C09288002093BC075F
:105270003093BD074093BE075093BF0780916F00E6
:10528000826080936F00CCCD82E0D3CFB12CA12C73
:1052900060E072E18AE790E0A5019801BCD769015E
:1052A0007A0181E0C81AD108E108F108C114D104DB
:1052B00091E0E906F104F4F491E02D81213051F5FB
:1052C00080918100887F892B809381002FEF3FEFB1
:1052D000A901411451046104710421F2D801AA0FFB
:1052E000BB1FA3019201D6D728EE33E040E050E087
:1052F00070D7ACCF68E478EE81E090E0A50198012A
:105300008AD769017A0181E0C81AD108E108F10859
:1053100093E0D3CF8D81833001F580919100887F18
:10532000892B809391002FEF3FEFA9014114510485
:105330006104710499F6D0929900C092980020936C
:10534000AE073093AF074093B0075093B1078091F9
:10535000710082608093710063CD2D81243009F546
:105360008091A100887F892B8093A1002FEF3FEFD0
:10537000A901411451046104710409F0AFCFD09226
:10538000A900C092A8002093A7073093A8074093D4
:10539000A9075093AA0780917200826080937200DF
:1053A0003FCD8D81853009F048CF80912101887FE4
:1053B000892B809321012FEF3FEFA9014114510464
:1053C0006104710409F08ACFD0922901C0922801AA
:1053D0002093A0073093A1074093A2075093A307FF
:1053E000809173008260809373001ACD8D81843028
:1053F00031F20CF4A0CF853039F312CDC7BC209325
:10540000C3073093C4074093C5075093C6078091E4
:105410006E00826080936E0003CDC092B300209333
:10542000B5073093B6074093B7075093B8078091FC
:105430007000826080937000F3CC84E02FEFC2167E
:10544000D104E104F10409F008F4F6CEC980DA8051
:10545000EB80FC809AE0F594E794D794C7949A95F2
:10546000D1F791E0C91AD108E108F10885E0E4CE4E
:1054700083E02FEFC216D104E104F10411F00CF027
:1054800082CEDACE8230A9F028F4882349F0813028
:1054900051F00895843009F1E8F0853009F108955C
:1054A00010926E00089580916F008D7F80936F0041
:1054B0000895809170008D7F8093700081E08093CB
:1054C000B0008091B100887F84608093B100109219
:1054D000B30008951092710008951092720008951B
:1054E000109273000895CF93C82F809106028C13F9
:1054F0000BC0E9E8F2E084919FEF90930602C2DFCF
:1055000061E08C2FCF9116CA8FEFF9CF1F920F92C7
:105510000FB60F9211240BB60F922F933F934F9318
:105520005F936F937F938F939F93AF93BF93EF930B
:10553000FF938091B5079091B607A091B707B091FE
:10554000B807892B8A2B8B2BE1F19091B207E09160
:10555000B307F091B4078081892780838091B507D4
:105560009091B607A091B707B091B8071816190621
:105570001A061B069CF48091B5079091B607A0917E
:10558000B707B091B8070197A109B1098093B50792
:105590009093B607A093B707B093B807FF91EF9128
:1055A000BF91AF919F918F917F916F915F914F913B
:1055B0003F912F910F900BBE0F900FBE0F901F9039
:1055C0001895809106028FDFE9CF1F920F920FB6D8
:1055D0000F9211240BB60F922F933F934F935F932B
:1055E0006F938F939F93EF93FF938091FC07482FC6
:1055F00050E09091FB07FA01EE0FFF1FE40FF51F3B
:10560000ED52F84F208120FD22C0933009F4A3C051
:105610008FE59AEE9093A7008093A60083E0809395
:10562000FB071092A5001092A4008FEF89BBFF9199
:10563000EF919F918F916F915F914F913F912F913A
:105640000F900BBE0F900FBE0F901F9018959111E9
:1056500039C09BB397609BBB811127C090916D00AF
:10566000906890936D009091020147E050E0481BD4
:10567000510921E030E001C0220F4A95EAF7892F55
:10568000822B8093020181E08093FB071092FE073A
:105690001092FD07109200081092FF0784E190E03D
:1056A0009093A7008093A600BCCF90916C0021E05E
:1056B00030E0082E01C0220F0A94EAF7922B909353
:1056C0006C00D1CF9130B1F46091020127E030E05D
:1056D000241B350B81E090E001C0880F2A95EAF782
:1056E000809586238093020182E08093FB078FE5FB
:1056F0009AEED6CF923061F59BB397609BBB811138
:1057000019C090916D009F7790936D002091FF07D5
:1057100030910008232B09F081CF90E0FC01EE0FBF
:10572000FF1FE80FF91FED52F84F80E991E09283D7
:10573000818374CF90916C0021E030E0082E01C08D
:10574000220F0A94EAF72095292320936C00DECFDC
:10575000933009F066CF98E08F5F883008F080E0E2
:10576000282F30E0F901EE0FFF1FE20FF31FED527B
:10577000F84F408140FF24C08093FC0781110FC087
:105780008091060187FF06C080E991E09093D507DC
:105790008093D4071092FB0788EC90E081CF809132
:1057A000030190E02150310902C0959587952A9513
:1057B000E2F780FFEFCF80E991E092838183EACF27
:1057C000915051F68093FC072CCF1F920F920FB689
:1057D0000F9211240BB60F922F933F934F935F9329
:1057E0006F937F938F939F93AF93BF93EF93FF93A9
:1057F0008091FB078230C9F480910301E091FC079E
:105800002E2F30E090E0A9014150510902C095953A
:1058100087954A95E2F780FFF1C08091A4009091AE
:10582000A5009093FE078093FD0780916C0088236C
:1058300009F4D1C080916C008823B9F08091ED0704
:105840009091EE07892B89F08091030181709091EE
:10585000CC07891751F08091030181708093CC07A8
:10586000E091ED07F091EE07199580916C00882387
:10587000C9F08091EF079091F007892B99F0809102
:105880000301869581709091CD07891759F0809119
:105890000301869581708093CD07E091EF07F09129
:1058A000F007199580916C008823D9F08091F10759
:1058B0009091F207892BA9F08091030182FB882740
:1058C00080F99091CE07891761F08091030182FBE6
:1058D000882780F98093CE07E091F107F091F207D5
:1058E000199580916C008823D9F08091F3079091ED
:1058F000F407892BA9F08091030183FB882780F9A5
:105900009091CF07891761F08091030183FB88276D
:1059100080F98093CF07E091F307F091F407199590
:1059200080916C008823C9F08091F5079091F6076B
:10593000892B99F080910301829581709091D00715
:10594000891759F080910301829581708093D00767
:10595000E091F507F091F607199580916C00882386
:10596000D9F08091F7079091F807892BA9F08091E1
:10597000030185FB882780F99091D107891761F091
:105980008091030185FB882780F98093D107E091FE
:10599000F707F091F807199580916C008823D9F0EA
:1059A0008091F9079091FA07892BA9F08091030162
:1059B00086FB882780F99091D207891761F0809142
:1059C000030186FB882780F98093D207E091F907CD
:1059D000F091FA071995FF91EF91BF91AF919F91C7
:1059E0008F917F916F915F914F913F912F910F9088
:1059F0000BBE0F900FBE0F901F9018954091FD07A2
:105A00005091FE074115510509F40FCF8091A40074
:105A10009091A500909300088093FF07F901EE0F85
:105A2000FF1FE20FF31FED52F84F841B950B64E745
:105A300070E0BBD372836183F8CE1F920F920FB6D2
:105A40000F9211240BB60F922F933F934F935F93B6
:105A50006F937F938F939F93AF93BF93EF93FF9336
:105A60008091FB07823061F48091060187FF3AC084
:105A70008091A4009091A5009093FE078093FD076C
:105A800080916D008823D9F08091EB079091EC070D
:105A9000892BA9F080910601881F8827881F909183
:105AA000CB07981761F080910601881F8827881F0F
:105AB0008093CB07E091EB07F091EC071995FF91EC
:105AC000EF91BF91AF919F918F917F916F915F9176
:105AD0004F913F912F910F900BBE0F900FBE0F90E3
